{
  "contractName": "Election",
  "abi": [
    {
      "constant": true,
      "inputs": [
        {
          "name": "",
          "type": "uint256"
        }
      ],
      "name": "candidates",
      "outputs": [
        {
          "name": "id",
          "type": "uint32"
        },
        {
          "name": "name",
          "type": "string"
        },
        {
          "name": "votes",
          "type": "uint256"
        },
        {
          "name": "constituency",
          "type": "uint16"
        }
      ],
      "payable": false,
      "stateMutability": "view",
      "type": "function"
    },
    {
      "constant": true,
      "inputs": [
        {
          "name": "",
          "type": "uint256"
        }
      ],
      "name": "constituencies",
      "outputs": [
        {
          "name": "id",
          "type": "uint16"
        },
        {
          "name": "name",
          "type": "string"
        }
      ],
      "payable": false,
      "stateMutability": "view",
      "type": "function"
    },
    {
      "constant": true,
      "inputs": [
        {
          "name": "",
          "type": "uint256"
        }
      ],
      "name": "testarray",
      "outputs": [
        {
          "name": "",
          "type": "uint32"
        }
      ],
      "payable": false,
      "stateMutability": "view",
      "type": "function"
    },
    {
      "constant": true,
      "inputs": [],
      "name": "cancount",
      "outputs": [
        {
          "name": "",
          "type": "uint32"
        }
      ],
      "payable": false,
      "stateMutability": "view",
      "type": "function"
    },
    {
      "constant": true,
      "inputs": [],
      "name": "concount",
      "outputs": [
        {
          "name": "",
          "type": "uint16"
        }
      ],
      "payable": false,
      "stateMutability": "view",
      "type": "function"
    },
    {
      "constant": true,
      "inputs": [],
      "name": "test",
      "outputs": [
        {
          "name": "",
          "type": "string"
        }
      ],
      "payable": false,
      "stateMutability": "view",
      "type": "function"
    },
    {
      "inputs": [],
      "payable": false,
      "stateMutability": "nonpayable",
      "type": "constructor"
    },
    {
      "constant": false,
      "inputs": [
        {
          "name": "vid",
          "type": "uint256"
        },
        {
          "name": "cid",
          "type": "uint256"
        }
      ],
      "name": "castVote",
      "outputs": [
        {
          "name": "",
          "type": "string"
        }
      ],
      "payable": false,
      "stateMutability": "nonpayable",
      "type": "function"
    }
  ],
  "bytecode": "0x60806040526001600360006101000a81548163ffffffff021916908363ffffffff1602179055506040518060600160405280600160ff168152602001600260ff168152602001600360ff1681525060059060036200005f9291906200047c565b503480156200006d57600080fd5b50620000b46040518060400160405280600d81526020017f42696b696e6920426f74746f6d00000000000000000000000000000000000000815250620001e060201b60201c565b6040518060600160405280600160ff168152602001600260ff168152602001600360ff16815250600160008081526020019081526020016000206002019060036200010192919062000530565b506200014a6040518060400160405280600981526020017f53616c61642041737300000000000000000000000000000000000000000000008152506000620002d560201b60201c565b620001926040518060400160405280601281526020017f426c61636b20446f6e616c64205472756d7000000000000000000000000000008152506000620002d560201b60201c565b620001da6040518060400160405280600c81526020017f4b65616e752052656176657300000000000000000000000000000000000000008152506000620002d560201b60201c565b620007ce565b60606040518060600160405280600360049054906101000a900461ffff1661ffff1681526020018381526020018281525060016000600360049054906101000a900461ffff1661ffff16815260200190815260200160002060008201518160000160006101000a81548161ffff021916908361ffff160217905550602082015181600101908051906020019062000279929190620005ec565b5060408201518160020190805190602001906200029892919062000673565b509050506003600481819054906101000a900461ffff168092919060010191906101000a81548161ffff021916908361ffff160217905550505050565b6040518060800160405280600360009054906101000a900463ffffffff1663ffffffff168152602001838152602001600081526020018261ffff1681525060026000600360009054906101000a900463ffffffff1663ffffffff16815260200190815260200160002060008201518160000160006101000a81548163ffffffff021916908363ffffffff160217905550602082015181600101908051906020019062000383929190620005ec565b506040820151816002015560608201518160030160006101000a81548161ffff021916908361ffff160217905550905050600160008261ffff168152602001908152602001600020600201600360009054906101000a900463ffffffff1690806001815401808255809150509060018203906000526020600020906004918282040191900660080290919263ffffffff16909190916101000a81548167ffffffffffffffff021916908367ffffffffffffffff160217905550506003600081819054906101000a900463ffffffff168092919060010191906101000a81548163ffffffff021916908363ffffffff160217905550505050565b828054828255906000526020600020906007016008900481019282156200051d5791602002820160005b83821115620004e957835183826101000a81548163ffffffff021916908360ff1602179055509260200192600401602081600301049283019260010302620004a6565b80156200051b5782816101000a81549063ffffffff0219169055600401602081600301049283019260010302620004e9565b505b5090506200052c919062000736565b5090565b82805482825590600052602060002090600301600490048101928215620005d95791602002820160005b83821115620005a157835183826101000a81548167ffffffffffffffff021916908360ff16021790555092602001926008016020816007010492830192600103026200055a565b8015620005d75782816101000a81549067ffffffffffffffff0219169055600801602081600701049283019260010302620005a1565b505b509050620005e891906200076c565b5090565b828054600181600116156101000203166002900490600052602060002090601f016020900481019282601f106200062f57805160ff191683800117855562000660565b8280016001018555821562000660579182015b828111156200065f57825182559160200191906001019062000642565b5b5090506200066f9190620007a6565b5090565b82805482825590600052602060002090600301600490048101928215620007235791602002820160005b83821115620006eb57835183826101000a81548167ffffffffffffffff021916908367ffffffffffffffff16021790555092602001926008016020816007010492830192600103026200069d565b8015620007215782816101000a81549067ffffffffffffffff0219169055600801602081600701049283019260010302620006eb565b505b5090506200073291906200076c565b5090565b6200076991905b808211156200076557600081816101000a81549063ffffffff0219169055506001016200073d565b5090565b90565b620007a391905b808211156200079f57600081816101000a81549067ffffffffffffffff02191690555060010162000773565b5090565b90565b620007cb91905b80821115620007c7576000816000905550600101620007ad565b5090565b90565b6107e780620007de6000396000f3fe608060405234801561001057600080fd5b506004361061007d5760003560e01c8063b0a1e7001161005b578063b0a1e700146102b9578063b865d90914610307578063e76e3a7b14610331578063f8a8fd6d146103575761007d565b80632c0a3f89146100825780633477ee2e146101335780639209416a14610203575b600080fd5b6100b86004803603604081101561009857600080fd5b8101908080359060200190929190803590602001909291905050506103da565b6040518080602001828103825283818151815260200191508051906020019080838360005b838110156100f85780820151818401526020810190506100dd565b50505050905090810190601f1680156101255780820380516001836020036101000a031916815260200191505b509250505060405180910390f35b61015f6004803603602081101561014957600080fd5b81019080803590602001909291905050506104b0565b604051808563ffffffff1663ffffffff168152602001806020018481526020018361ffff1661ffff168152602001828103825285818151815260200191508051906020019080838360005b838110156101c55780820151818401526020810190506101aa565b50505050905090810190601f1680156101f25780820380516001836020036101000a031916815260200191505b509550505050505060405180910390f35b61022f6004803603602081101561021957600080fd5b8101908080359060200190929190505050610596565b604051808361ffff1661ffff16815260200180602001828103825283818151815260200191508051906020019080838360005b8381101561027d578082015181840152602081019050610262565b50505050905090810190601f1680156102aa5780820380516001836020036101000a031916815260200191505b50935050505060405180910390f35b6102e5600480360360208110156102cf57600080fd5b8101908080359060200190929190505050610660565b604051808263ffffffff1663ffffffff16815260200191505060405180910390f35b61030f610697565b604051808263ffffffff1663ffffffff16815260200191505060405180910390f35b6103396106ad565b604051808261ffff1661ffff16815260200191505060405180910390f35b61035f6106c1565b6040518080602001828103825283818151815260200191508051906020019080838360005b8381101561039f578082015181840152602081019050610384565b50505050905090810190601f1680156103cc5780820380516001836020036101000a031916815260200191505b509250505060405180910390f35b6060600015156103e98461075f565b1515141561042e576040518060400160405280601481526020017f4e6f7420612076616c696420566f74657220494400000000000000000000000081525090506104aa565b6001151560008085815260200190815260200160002060009054906101000a900460ff1615151461048e57600160008085815260200190815260200160002060006101000a81548160ff02191690831515021790555061048d8261076a565b5b6040518060600160405280602881526020016107946028913990505b92915050565b60026020528060005260406000206000915090508060000160009054906101000a900463ffffffff1690806001018054600181600116156101000203166002900480601f0160208091040260200160405190810160405280929190818152602001828054600181600116156101000203166002900480156105725780601f1061054757610100808354040283529160200191610572565b820191906000526020600020905b81548152906001019060200180831161055557829003601f168201915b5050505050908060020154908060030160009054906101000a900461ffff16905084565b60016020528060005260406000206000915090508060000160009054906101000a900461ffff1690806001018054600181600116156101000203166002900480601f0160208091040260200160405190810160405280929190818152602001828054600181600116156101000203166002900480156106565780601f1061062b57610100808354040283529160200191610656565b820191906000526020600020905b81548152906001019060200180831161063957829003601f168201915b5050505050905082565b6005818154811061066d57fe5b9060005260206000209060089182820401919006600402915054906101000a900463ffffffff1681565b600360009054906101000a900463ffffffff1681565b600360049054906101000a900461ffff1681565b60048054600181600116156101000203166002900480601f0160208091040260200160405190810160405280929190818152602001828054600181600116156101000203166002900480156107575780601f1061072c57610100808354040283529160200191610757565b820191906000526020600020905b81548152906001019060200180831161073a57829003601f168201915b505050505081565b600060019050919050565b60026000828152602001908152602001600020600201600081548092919060010191905055505056fe596f757220766f746520686173206265656e207265636f72646564207375636365737366756c6c79a165627a7a723058203de180a8c616ae3749fb39bd87780c7fffe782945cd35d52cce2860e4f9a35330029",
  "source": "pragma solidity ^0.5.0;\n\ncontract Election{\n\n  struct Candidate{\n    uint32 id;\n    string name;\n    uint votes;\n    uint16 constituency; // The constituency that candidate is running for\n  }\n\n  struct Constituency{\n    uint16 id;\n    string name;\n    uint64[] cans; //will hold the IDs of all candidates for that constituency\n  }\n\n  mapping(uint => bool) private voted;\n  mapping(uint => Constituency) public constituencies;\n  mapping(uint => Candidate) public candidates;\n  uint32 public cancount = 1;\n  uint16 public concount;\n  string public test;\n  uint32[] public testarray = [1,2,3];\n\n\n  constructor() public{\n    newConstituency(\"Bikini Bottom\");\n    constituencies[0].cans = [1,2,3];\n    newCandidate(\"Salad Ass\", 0);\n    newCandidate(\"Black Donald Trump\", 0);\n    newCandidate(\"Keanu Reaves\", 0);\n  }\n\n  function verifyVoter(uint voterid) private returns(bool){\n    return true;\n  }\n\n  function castVote(uint vid, uint cid) public returns(string memory){\n    if (verifyVoter(vid) == false){\n      return \"Not a valid Voter ID\";\n    }\n\n    else{\n      if(voted[vid] != true){\n        voted[vid] = true;\n        recordVote(cid);\n      }\n      return \"Your vote has been recorded successfully\";\n  }\n}\n\n  function newConstituency(string memory _name) private{\n    uint64[] memory tmp;\n    constituencies[concount] = Constituency(concount, _name, tmp);\n    concount++;\n  }\n\n  function newCandidate(string memory _name, uint16 c_id) private{\n    candidates[cancount] = Candidate(cancount, _name, 0, c_id);\n    constituencies[c_id].cans.push(cancount);\n    cancount++;\n  }\n\n  function recordVote(uint _id) private{\n    candidates[_id].votes++;\n  }\n}\n",
  "sourcePath": "/home/scar/Blockchain/Election-Dapp/contracts/Election.sol",
  "compiler": {
    "name": "solc",
    "version": "0.5.8+commit.23d335f2.Emscripten.clang"
  },
  "schemaVersion": "3.0.11",
  "updatedAt": "2019-08-15T18:05:23.710Z",
  "devdoc": {
    "methods": {}
  },
  "userdoc": {
    "methods": {}
  }
}