{
  "contractName": "Election",
  "abi": [
    {
      "constant": true,
      "inputs": [
        {
          "name": "",
          "type": "uint256"
        }
      ],
      "name": "candidates",
      "outputs": [
        {
          "name": "id",
          "type": "uint256"
        },
        {
          "name": "name",
          "type": "string"
        },
        {
          "name": "votes",
          "type": "uint256"
        }
      ],
      "payable": false,
      "stateMutability": "view",
      "type": "function"
    },
    {
      "constant": true,
      "inputs": [],
      "name": "cancount",
      "outputs": [
        {
          "name": "",
          "type": "uint256"
        }
      ],
      "payable": false,
      "stateMutability": "view",
      "type": "function"
    },
    {
      "constant": true,
      "inputs": [],
      "name": "test",
      "outputs": [
        {
          "name": "",
          "type": "string"
        }
      ],
      "payable": false,
      "stateMutability": "view",
      "type": "function"
    },
    {
      "inputs": [],
      "payable": false,
      "stateMutability": "nonpayable",
      "type": "constructor"
    },
    {
      "constant": false,
      "inputs": [
        {
          "name": "vid",
          "type": "uint256"
        },
        {
          "name": "cid",
          "type": "uint256"
        }
      ],
      "name": "castVote",
      "outputs": [
        {
          "name": "",
          "type": "string"
        }
      ],
      "payable": false,
      "stateMutability": "nonpayable",
      "type": "function"
    },
    {
      "constant": false,
      "inputs": [
        {
          "name": "_id",
          "type": "uint256"
        }
      ],
      "name": "vote",
      "outputs": [],
      "payable": false,
      "stateMutability": "nonpayable",
      "type": "function"
    }
  ],
  "bytecode": "0x608060405234801561001057600080fd5b506100556040518060400160405280600981526020017f53616c61642041737300000000000000000000000000000000000000000000008152506100e260201b60201c565b6100996040518060400160405280601281526020017f426c61636b20446f6e616c64205472756d7000000000000000000000000000008152506100e260201b60201c565b6100dd6040518060400160405280600c81526020017f4b65616e752052656176657300000000000000000000000000000000000000008152506100e260201b60201c565b610203565b60405180606001604052806002548152602001828152602001600081525060016000600254815260200190815260200160002060008201518160000155602082015181600101908051906020019061013b92919061015e565b506040820151816002015590505060026000815480929190600101919050555050565b828054600181600116156101000203166002900490600052602060002090601f016020900481019282601f1061019f57805160ff19168380011785556101cd565b828001600101855582156101cd579182015b828111156101cc5782518255916020019190600101906101b1565b5b5090506101da91906101de565b5090565b61020091905b808211156101fc5760008160009055506001016101e4565b5090565b90565b61059a806102126000396000f3fe608060405234801561001057600080fd5b50600436106100575760003560e01c80630121b93f1461005c5780632c0a3f891461008a5780633477ee2e1461013b578063b865d909146101f0578063f8a8fd6d1461020e575b600080fd5b6100886004803603602081101561007257600080fd5b8101908080359060200190929190505050610291565b005b6100c0600480360360408110156100a057600080fd5b8101908080359060200190929190803590602001909291905050506102ba565b6040518080602001828103825283818151815260200191508051906020019080838360005b838110156101005780820151818401526020810190506100e5565b50505050905090810190601f16801561012d5780820380516001836020036101000a031916815260200191505b509250505060405180910390f35b6101676004803603602081101561015157600080fd5b81019080803590602001909291905050506103b0565b6040518084815260200180602001838152602001828103825284818151815260200191508051906020019080838360005b838110156101b3578082015181840152602081019050610198565b50505050905090810190601f1680156101e05780820380516001836020036101000a031916815260200191505b5094505050505060405180910390f35b6101f8610472565b6040518082815260200191505060405180910390f35b610216610478565b6040518080602001828103825283818151815260200191508051906020019080838360005b8381101561025657808201518184015260208101905061023b565b50505050905090810190601f1680156102835780820380516001836020036101000a031916815260200191505b509250505060405180910390f35b600160008281526020019081526020016000206002016000815480929190600101919050555050565b6060600015156102c984610516565b1515141561030e576040518060400160405280601481526020017f4e6f7420612076616c696420566f74657220494400000000000000000000000081525090506103aa565b6001151560008085815260200190815260200160002060009054906101000a900460ff161515141561035a576040518060600160405280602581526020016105226025913990506103aa565b600160008085815260200190815260200160002060006101000a81548160ff02191690831515021790555061038e82610291565b6040518060600160405280602881526020016105476028913990505b92915050565b6001602052806000526040600020600091509050806000015490806001018054600181600116156101000203166002900480601f0160208091040260200160405190810160405280929190818152602001828054600181600116156101000203166002900480156104625780601f1061043757610100808354040283529160200191610462565b820191906000526020600020905b81548152906001019060200180831161044557829003601f168201915b5050505050908060020154905083565b60025481565b60038054600181600116156101000203166002900480601f01602080910402602001604051908101604052809291908181526020018280546001816001161561010002031660029004801561050e5780601f106104e35761010080835404028352916020019161050e565b820191906000526020600020905b8154815290600101906020018083116104f157829003601f168201915b505050505081565b60006001905091905056fe53706563696669656420757365722068617320616c726561647920766f746564206f6e6365596f757220766f746520686173206265656e207265636f72646564207375636365737366756c6c79a165627a7a723058201dfb7536db538ed81f3cf7bc7bc9f06efd34d45621eed29c2ec926c61fcf0ebc0029",
  "source": "pragma solidity ^0.5.0;\n\ncontract Election{\n\n  struct Candidate{\n    uint id;\n    string name;\n    uint votes;\n  }\n\n  mapping(uint => bool) private voted;\n  mapping(uint => Candidate) public candidates;\n  uint public cancount;\n  string public test;\n\n\n  constructor() public{\n    newCandidate(\"Salad Ass\");\n    newCandidate(\"Black Donald Trump\");\n    newCandidate(\"Keanu Reaves\");\n  }\n\n  function verifyVoter(uint voterid) private returns(bool){\n    return true;\n  }\n\n  function castVote(uint vid, uint cid) public returns(string memory){\n    if (verifyVoter(vid) == false){\n      return \"Not a valid Voter ID\";\n    }\n\n    else{\n      if(voted[vid] == true){\n        return \"Specified user has already voted once\";\n      }\n      else{\n        voted[vid] = true;\n        vote(cid);\n        return \"Your vote has been recorded successfully\";\n      }\n    }\n  }\n\n  function newCandidate(string memory _name) private{\n    candidates[cancount] = Candidate(cancount, _name, 0);\n    cancount++;\n  }\n\n  function vote(uint _id) public{\n    candidates[_id].votes++;\n  }\n}\n",
  "sourcePath": "/home/scar/Blockchain/Election-Dapp/contracts/Election.sol",
  "compiler": {
    "name": "solc",
    "version": "0.5.8+commit.23d335f2.Emscripten.clang"
  },
  "schemaVersion": "3.0.11",
  "updatedAt": "2019-08-14T18:54:58.630Z",
  "devdoc": {
    "methods": {}
  },
  "userdoc": {
    "methods": {}
  }
}