{
  "contractName": "Election",
  "abi": [
    {
      "constant": true,
      "inputs": [
        {
          "name": "",
          "type": "uint256"
        }
      ],
      "name": "candidates",
      "outputs": [
        {
          "name": "id",
          "type": "uint256"
        },
        {
          "name": "name",
          "type": "string"
        },
        {
          "name": "votes",
          "type": "uint256"
        }
      ],
      "payable": false,
      "stateMutability": "view",
      "type": "function"
    },
    {
      "constant": true,
      "inputs": [],
      "name": "cancount",
      "outputs": [
        {
          "name": "",
          "type": "uint256"
        }
      ],
      "payable": false,
      "stateMutability": "view",
      "type": "function"
    },
    {
      "constant": true,
      "inputs": [],
      "name": "test",
      "outputs": [
        {
          "name": "",
          "type": "string"
        }
      ],
      "payable": false,
      "stateMutability": "view",
      "type": "function"
    },
    {
      "inputs": [],
      "payable": false,
      "stateMutability": "nonpayable",
      "type": "constructor"
    }
  ],
  "bytecode": "0x608060405234801561001057600080fd5b5060006001819055506040518060400160405280600981526020017f53616c616420617373000000000000000000000000000000000000000000000081525060029080519060200190610064929190610216565b5061010e60028054600181600116156101000203166002900480601f0160208091040260200160405190810160405280929190818152602001828054600181600116156101000203166002900480156100fe5780601f106100d3576101008083540402835291602001916100fe565b820191906000526020600020905b8154815290600101906020018083116100e157829003601f168201915b505050505061019b60201b60201c565b6101526040518060400160405280601281526020017f426c61636b20446f6e616c64205472756d70000000000000000000000000000081525061019b60201b60201c565b6101966040518060400160405280600c81526020017f4b65616e7520526561766573000000000000000000000000000000000000000081525061019b60201b60201c565b61033b565b6001600081548092919060010191905055506040518060600160405280600154815260200182815260200160008152506000806001548152602001908152602001600020600082015181600001556020820151816001019080519060200190610205929190610296565b506040820151816002015590505050565b828054600181600116156101000203166002900490600052602060002090601f016020900481019282601f1061025757805160ff1916838001178555610285565b82800160010185558215610285579182015b82811115610284578251825591602001919060010190610269565b5b5090506102929190610316565b5090565b828054600181600116156101000203166002900490600052602060002090601f016020900481019282601f106102d757805160ff1916838001178555610305565b82800160010185558215610305579182015b828111156103045782518255916020019190600101906102e9565b5b5090506103129190610316565b5090565b61033891905b8082111561033457600081600090555060010161031c565b5090565b90565b61032e8061034a6000396000f3fe608060405234801561001057600080fd5b50600436106100415760003560e01c80633477ee2e14610046578063b865d909146100fb578063f8a8fd6d14610119575b600080fd5b6100726004803603602081101561005c57600080fd5b810190808035906020019092919050505061019c565b6040518084815260200180602001838152602001828103825284818151815260200191508051906020019080838360005b838110156100be5780820151818401526020810190506100a3565b50505050905090810190601f1680156100eb5780820380516001836020036101000a031916815260200191505b5094505050505060405180910390f35b61010361025e565b6040518082815260200191505060405180910390f35b610121610264565b6040518080602001828103825283818151815260200191508051906020019080838360005b83811015610161578082015181840152602081019050610146565b50505050905090810190601f16801561018e5780820380516001836020036101000a031916815260200191505b509250505060405180910390f35b6000602052806000526040600020600091509050806000015490806001018054600181600116156101000203166002900480601f01602080910402602001604051908101604052809291908181526020018280546001816001161561010002031660029004801561024e5780601f106102235761010080835404028352916020019161024e565b820191906000526020600020905b81548152906001019060200180831161023157829003601f168201915b5050505050908060020154905083565b60015481565b60028054600181600116156101000203166002900480601f0160208091040260200160405190810160405280929190818152602001828054600181600116156101000203166002900480156102fa5780601f106102cf576101008083540402835291602001916102fa565b820191906000526020600020905b8154815290600101906020018083116102dd57829003601f168201915b50505050508156fea165627a7a7230582003d5244888160a754135c8b9dc1a9e99f07876b8553d016a1a209154cc42e3340029",
  "source": "pragma solidity ^0.5.0;\n\ncontract Election{\n\n  struct Candidate{\n    uint id;\n    string name;\n    uint votes;\n  }\n\n  mapping(uint => Candidate) public candidates;\n  uint public cancount;\n  string public test;\n\n  constructor() public{\n    cancount = 0;\n    test = \"Salad ass\";\n    newCandidate(test);\n    newCandidate(\"Black Donald Trump\");\n    newCandidate(\"Keanu Reaves\");\n  }\n\n  function newCandidate(string memory _name) private{\n    cancount++;\n    candidates[cancount] = Candidate(cancount, _name, 0);\n  }\n}\n",
  "sourcePath": "/home/scar/Blockchain/Election-Dapp/contracts/Election.sol",
  "compiler": {
    "name": "solc",
    "version": "0.5.8+commit.23d335f2.Emscripten.clang"
  },
  "schemaVersion": "3.0.11",
  "updatedAt": "2019-07-20T20:10:22.904Z",
  "devdoc": {
    "methods": {}
  },
  "userdoc": {
    "methods": {}
  }
}