{
  "contractName": "Election",
  "abi": [
    {
      "constant": true,
      "inputs": [
        {
          "name": "",
          "type": "uint256"
        }
      ],
      "name": "candidates",
      "outputs": [
        {
          "name": "id",
          "type": "uint32"
        },
        {
          "name": "name",
          "type": "string"
        },
        {
          "name": "votes",
          "type": "uint256"
        }
      ],
      "payable": false,
      "stateMutability": "view",
      "type": "function"
    },
    {
      "constant": true,
      "inputs": [],
      "name": "cancount",
      "outputs": [
        {
          "name": "",
          "type": "uint32"
        }
      ],
      "payable": false,
      "stateMutability": "view",
      "type": "function"
    },
    {
      "inputs": [],
      "payable": false,
      "stateMutability": "nonpayable",
      "type": "constructor"
    },
    {
      "anonymous": false,
      "inputs": [
        {
          "indexed": false,
          "name": "response",
          "type": "string"
        }
      ],
      "name": "temp",
      "type": "event"
    },
    {
      "constant": false,
      "inputs": [
        {
          "name": "vid",
          "type": "uint256"
        },
        {
          "name": "cid",
          "type": "uint256"
        }
      ],
      "name": "castVote",
      "outputs": [
        {
          "name": "",
          "type": "string"
        }
      ],
      "payable": false,
      "stateMutability": "nonpayable",
      "type": "function"
    },
    {
      "constant": false,
      "inputs": [
        {
          "name": "queryID",
          "type": "bytes32"
        },
        {
          "name": "result",
          "type": "string"
        }
      ],
      "name": "__callback",
      "outputs": [],
      "payable": false,
      "stateMutability": "nonpayable",
      "type": "function"
    },
    {
      "constant": false,
      "inputs": [
        {
          "name": "_myid",
          "type": "bytes32"
        },
        {
          "name": "_result",
          "type": "string"
        },
        {
          "name": "_proof",
          "type": "bytes"
        }
      ],
      "name": "__callback",
      "outputs": [],
      "payable": false,
      "stateMutability": "nonpayable",
      "type": "function"
    },
    {
      "constant": false,
      "inputs": [],
      "name": "testOracle",
      "outputs": [],
      "payable": true,
      "stateMutability": "payable",
      "type": "function"
    }
  ],
  "bytecode": "0x60806040523480156200001157600080fd5b50620000586040518060400160405280600981526020017f53616c6164204173730000000000000000000000000000000000000000000000815250620000ea60201b60201c565b6200009e6040518060400160405280601281526020017f426c61636b20446f6e616c64205472756d700000000000000000000000000000815250620000ea60201b60201c565b620000e46040518060400160405280600c81526020017f4b65616e75205265617665730000000000000000000000000000000000000000815250620000ea60201b60201c565b62000289565b6040518060600160405280600760009054906101000a900463ffffffff1663ffffffff168152602001828152602001600081525060066000600760009054906101000a900463ffffffff1663ffffffff16815260200190815260200160002060008201518160000160006101000a81548163ffffffff021916908363ffffffff16021790555060208201518160010190805190602001906200018e929190620001da565b50604082015181600201559050506007600081819054906101000a900463ffffffff168092919060010191906101000a81548163ffffffff021916908363ffffffff1602179055505050565b828054600181600116156101000203166002900490600052602060002090601f016020900481019282601f106200021d57805160ff19168380011785556200024e565b828001600101855582156200024e579182015b828111156200024d57825182559160200191906001019062000230565b5b5090506200025d919062000261565b5090565b6200028691905b808211156200028257600081600090555060010162000268565b5090565b90565b6116db80620002996000396000f3fe6080604052600436106100555760003560e01c806327dc297e1461005a5780632c0a3f891461012c5780633477ee2e146101ea57806338bbfa50146102b8578063a2152e3214610421578063b865d9091461042b575b600080fd5b34801561006657600080fd5b5061012a6004803603604081101561007d57600080fd5b8101908080359060200190929190803590602001906401000000008111156100a457600080fd5b8201836020820111156100b657600080fd5b803590602001918460018302840111640100000000831117156100d857600080fd5b91908080601f016020809104026020016040519081016040528093929190818152602001838380828437600081840152601f19601f820116905080830192505050505050509192919290505050610462565b005b34801561013857600080fd5b5061016f6004803603604081101561014f57600080fd5b810190808035906020019092919080359060200190929190505050610541565b6040518080602001828103825283818151815260200191508051906020019080838360005b838110156101af578082015181840152602081019050610194565b50505050905090810190601f1680156101dc5780820380516001836020036101000a031916815260200191505b509250505060405180910390f35b3480156101f657600080fd5b506102236004803603602081101561020d57600080fd5b8101908080359060200190929190505050610619565b604051808463ffffffff1663ffffffff16815260200180602001838152602001828103825284818151815260200191508051906020019080838360005b8381101561027b578082015181840152602081019050610260565b50505050905090810190601f1680156102a85780820380516001836020036101000a031916815260200191505b5094505050505060405180910390f35b3480156102c457600080fd5b5061041f600480360360608110156102db57600080fd5b81019080803590602001909291908035906020019064010000000081111561030257600080fd5b82018360208201111561031457600080fd5b8035906020019184600183028401116401000000008311171561033657600080fd5b91908080601f016020809104026020016040519081016040528093929190818152602001838380828437600081840152601f19601f8201169050808301925050505050505091929192908035906020019064010000000081111561039957600080fd5b8201836020820111156103ab57600080fd5b803590602001918460018302840111640100000000831117156103cd57600080fd5b91908080601f016020809104026020016040519081016040528093929190818152602001838380828437600081840152601f19601f8201169050808301925050505050505091929192905050506106eb565b005b61042961070e565b005b34801561043757600080fd5b50610440610768565b604051808263ffffffff1663ffffffff16815260200191505060405180910390f35b61046a61077e565b73ffffffffffffffffffffffffffffffffffffffff163373ffffffffffffffffffffffffffffffffffffffff16146104a157600080fd5b7f6ba31b484c93c06734efc1e44b04ef472b8515f2a8989fc062d25f40b2e14467816040518080602001828103825283818151815260200191508051906020019080838360005b838110156105035780820151818401526020810190506104e8565b50505050905090810190601f1680156105305780820380516001836020036101000a031916815260200191505b509250505060405180910390a15050565b60606000151561055084610a9b565b15151415610595576040518060400160405280601481526020017f4e6f7420612076616c696420566f7465722049440000000000000000000000008152509050610613565b600115156005600085815260200190815260200160002060009054906101000a900460ff161515146105f75760016005600085815260200190815260200160002060006101000a81548160ff0219169083151502179055506105f682610aa6565b5b6040518060600160405280602881526020016116886028913990505b92915050565b60066020528060005260406000206000915090508060000160009054906101000a900463ffffffff1690806001018054600181600116156101000203166002900480601f0160208091040260200160405190810160405280929190818152602001828054600181600116156101000203166002900480156106db5780601f106106b0576101008083540402835291602001916106db565b820191906000526020600020905b8154815290600101906020018083116106be57829003601f168201915b5050505050908060020154905083565b6000801b600360008060001b815260200190815260200160002081905550505050565b6107656040518060400160405280600381526020017f55524c000000000000000000000000000000000000000000000000000000000081525060405180606001604052806040815260200161164860409139610acf565b50565b600760009054906101000a900463ffffffff1681565b60008073ffffffffffffffffffffffffffffffffffffffff16600160009054906101000a900473ffffffffffffffffffffffffffffffffffffffff1673ffffffffffffffffffffffffffffffffffffffff16148061080657506000610804600160009054906101000a900473ffffffffffffffffffffffffffffffffffffffff16611015565b145b15610817576108156000611020565b505b600160009054906101000a900473ffffffffffffffffffffffffffffffffffffffff1673ffffffffffffffffffffffffffffffffffffffff166338cc48316040518163ffffffff1660e01b8152600401602060405180830381600087803b15801561088157600080fd5b505af1158015610895573d6000803e3d6000fd5b505050506040513d60208110156108ab57600080fd5b810190808051906020019092919050505073ffffffffffffffffffffffffffffffffffffffff166000809054906101000a900473ffffffffffffffffffffffffffffffffffffffff1673ffffffffffffffffffffffffffffffffffffffff16146109f457600160009054906101000a900473ffffffffffffffffffffffffffffffffffffffff1673ffffffffffffffffffffffffffffffffffffffff166338cc48316040518163ffffffff1660e01b8152600401602060405180830381600087803b15801561097957600080fd5b505af115801561098d573d6000803e3d6000fd5b505050506040513d60208110156109a357600080fd5b81019080805190602001909291905050506000806101000a81548173ffffffffffffffffffffffffffffffffffffffff021916908373ffffffffffffffffffffffffffffffffffffffff1602179055505b6000809054906101000a900473ffffffffffffffffffffffffffffffffffffffff1673ffffffffffffffffffffffffffffffffffffffff1663c281d19e6040518163ffffffff1660e01b815260040160206040518083038186803b158015610a5b57600080fd5b505afa158015610a6f573d6000803e3d6000fd5b505050506040513d6020811015610a8557600080fd5b8101908080519060200190929190505050905090565b600060019050919050565b600660008281526020019081526020016000206002016000815480929190600101919050555050565b60008073ffffffffffffffffffffffffffffffffffffffff16600160009054906101000a900473ffffffffffffffffffffffffffffffffffffffff1673ffffffffffffffffffffffffffffffffffffffff161480610b5757506000610b55600160009054906101000a900473ffffffffffffffffffffffffffffffffffffffff16611015565b145b15610b6857610b666000611020565b505b600160009054906101000a900473ffffffffffffffffffffffffffffffffffffffff1673ffffffffffffffffffffffffffffffffffffffff166338cc48316040518163ffffffff1660e01b8152600401602060405180830381600087803b158015610bd257600080fd5b505af1158015610be6573d6000803e3d6000fd5b505050506040513d6020811015610bfc57600080fd5b810190808051906020019092919050505073ffffffffffffffffffffffffffffffffffffffff166000809054906101000a900473ffffffffffffffffffffffffffffffffffffffff1673ffffffffffffffffffffffffffffffffffffffff1614610d4557600160009054906101000a900473ffffffffffffffffffffffffffffffffffffffff1673ffffffffffffffffffffffffffffffffffffffff166338cc48316040518163ffffffff1660e01b8152600401602060405180830381600087803b158015610cca57600080fd5b505af1158015610cde573d6000803e3d6000fd5b505050506040513d6020811015610cf457600080fd5b81019080805190602001909291905050506000806101000a81548173ffffffffffffffffffffffffffffffffffffffff021916908373ffffffffffffffffffffffffffffffffffffffff1602179055505b60008060009054906101000a900473ffffffffffffffffffffffffffffffffffffffff1673ffffffffffffffffffffffffffffffffffffffff1663524f3889856040518263ffffffff1660e01b81526004018080602001828103825283818151815260200191508051906020019080838360005b83811015610dd4578082015181840152602081019050610db9565b50505050905090810190601f168015610e015780820380516001836020036101000a031916815260200191505b5092505050602060405180830381600087803b158015610e2057600080fd5b505af1158015610e34573d6000803e3d6000fd5b505050506040513d6020811015610e4a57600080fd5b8101908080519060200190929190505050905062030d403a02670de0b6b3a764000001811115610e80576000801b91505061100f565b6000809054906101000a900473ffffffffffffffffffffffffffffffffffffffff1673ffffffffffffffffffffffffffffffffffffffff1663adf59f9982600087876040518563ffffffff1660e01b8152600401808481526020018060200180602001838103835285818151815260200191508051906020019080838360005b83811015610f1b578082015181840152602081019050610f00565b50505050905090810190601f168015610f485780820380516001836020036101000a031916815260200191505b50838103825284818151815260200191508051906020019080838360005b83811015610f81578082015181840152602081019050610f66565b50505050905090810190601f168015610fae5780820380516001836020036101000a031916815260200191505b50955050505050506020604051808303818588803b158015610fcf57600080fd5b505af1158015610fe3573d6000803e3d6000fd5b50505050506040513d6020811015610ffa57600080fd5b81019080805190602001909291905050509150505b92915050565b6000813b9050919050565b600061102a611031565b9050919050565b600080611051731d3b2638a7cc9f2cb3d298a3da7a90b67e5506ed611015565b11156110f357731d3b2638a7cc9f2cb3d298a3da7a90b67e5506ed600160006101000a81548173ffffffffffffffffffffffffffffffffffffffff021916908373ffffffffffffffffffffffffffffffffffffffff1602179055506110ea6040518060400160405280600b81526020017f6574685f6d61696e6e6574000000000000000000000000000000000000000000815250611588565b60019050611585565b600061111273c03a2615d5efaf5f49f60b7bb6583eaec212fdf1611015565b11156111b45773c03a2615d5efaf5f49f60b7bb6583eaec212fdf1600160006101000a81548173ffffffffffffffffffffffffffffffffffffffff021916908373ffffffffffffffffffffffffffffffffffffffff1602179055506111ab6040518060400160405280600c81526020017f6574685f726f707374656e330000000000000000000000000000000000000000815250611588565b60019050611585565b60006111d373b7a07bcf2ba2f2703b24c0691b5278999c59ac7e611015565b11156112755773b7a07bcf2ba2f2703b24c0691b5278999c59ac7e600160006101000a81548173ffffffffffffffffffffffffffffffffffffffff021916908373ffffffffffffffffffffffffffffffffffffffff16021790555061126c6040518060400160405280600981526020017f6574685f6b6f76616e0000000000000000000000000000000000000000000000815250611588565b60019050611585565b600061129473146500cfd35b22e4a392fe0adc06de1a1368ed48611015565b11156113365773146500cfd35b22e4a392fe0adc06de1a1368ed48600160006101000a81548173ffffffffffffffffffffffffffffffffffffffff021916908373ffffffffffffffffffffffffffffffffffffffff16021790555061132d6040518060400160405280600b81526020017f6574685f72696e6b656279000000000000000000000000000000000000000000815250611588565b60019050611585565b600061135573a2998efd205fb9d4b4963afb70778d6354ad3a41611015565b11156113f75773a2998efd205fb9d4b4963afb70778d6354ad3a41600160006101000a81548173ffffffffffffffffffffffffffffffffffffffff021916908373ffffffffffffffffffffffffffffffffffffffff1602179055506113ee6040518060400160405280600a81526020017f6574685f676f65726c6900000000000000000000000000000000000000000000815250611588565b60019050611585565b6000611416736f485c8bf6fc43ea212e93bbf8ce046c7f1cb475611015565b111561147a57736f485c8bf6fc43ea212e93bbf8ce046c7f1cb475600160006101000a81548173ffffffffffffffffffffffffffffffffffffffff021916908373ffffffffffffffffffffffffffffffffffffffff16021790555060019050611585565b60006114997320e12a1f859b3feae5fb2a0a32c18f5a65555bbf611015565b11156114fd577320e12a1f859b3feae5fb2a0a32c18f5a65555bbf600160006101000a81548173ffffffffffffffffffffffffffffffffffffffff021916908373ffffffffffffffffffffffffffffffffffffffff16021790555060019050611585565b600061151c7351efaf4c8b3c9afbd5ab9f4bbc82784ab6ef8faa611015565b1115611580577351efaf4c8b3c9afbd5ab9f4bbc82784ab6ef8faa600160006101000a81548173ffffffffffffffffffffffffffffffffffffffff021916908373ffffffffffffffffffffffffffffffffffffffff16021790555060019050611585565b600090505b90565b806002908051906020019061159e9291906115a2565b5050565b828054600181600116156101000203166002900490600052602060002090601f016020900481019282601f106115e357805160ff1916838001178555611611565b82800160010185558215611611579182015b828111156116105782518255916020019190600101906115f5565b5b50905061161e9190611622565b5090565b61164491905b80821115611640576000816000905550600101611628565b5090565b9056fe6a736f6e2868747470733a2f2f6170692e70726f2e636f696e626173652e636f6d2f70726f64756374732f4554482d5553442f7469636b6572292e7072696365596f757220766f746520686173206265656e207265636f72646564207375636365737366756c6c79a165627a7a7230582038744639e06c31cb1185f07da17b15dd570ff9ee90df2f9dfc21eb68e8ce49040029",
  "source": "pragma solidity ^0.5.0;\nimport \"./provable.sol\";\n\ncontract Election is usingProvable{\n\n  struct Candidate{\n    uint32 id;\n    string name;\n    uint votes;\n  }\n\n  mapping(uint => bool) private voted;\n  mapping(uint => Candidate) public candidates;\n  uint32 public cancount;\n\n  event temp(string response);\n\n  constructor() public{\n    newCandidate(\"Salad Ass\");\n    newCandidate(\"Black Donald Trump\");\n    newCandidate(\"Keanu Reaves\");\n  }\n\n  function verifyVoter(uint voterid) private returns(bool){\n    return true;\n  }\n\n  function castVote(uint vid, uint cid) public returns(string memory){\n    if (verifyVoter(vid) == false){\n      return \"Not a valid Voter ID\";\n    }\n\n    else{\n      if(voted[vid] != true){\n        voted[vid] = true;\n        recordVote(cid);\n      }\n      return \"Your vote has been recorded successfully\";\n  }\n}\n\n  function newCandidate(string memory _name) private{\n    candidates[cancount] = Candidate(cancount, _name, 0);\n    cancount++;\n  }\n\n  function recordVote(uint _id) private{\n    candidates[_id].votes++;\n  }\n\n  function __callback(bytes32 queryID, string memory result) public{\n    if(msg.sender != provable_cbAddress()) revert();\n    emit temp(result);\n  }\n\n  function testOracle() public payable{\n    provable_query(\"URL\",\"json(https://api.pro.coinbase.com/products/ETH-USD/ticker).price\");\n  }\n}\n",
  "sourcePath": "/home/scar/Blockchain/Election-Dapp/contracts/Election.sol",
  "compiler": {
    "name": "solc",
    "version": "0.5.8+commit.23d335f2.Emscripten.clang"
  },
  "schemaVersion": "3.0.11",
  "updatedAt": "2019-08-18T13:34:30.414Z",
  "devdoc": {
    "methods": {}
  },
  "userdoc": {
    "methods": {}
  }
}