{
  "contractName": "Election",
  "abi": [
    {
      "constant": true,
      "inputs": [
        {
          "name": "",
          "type": "uint256"
        }
      ],
      "name": "candidates",
      "outputs": [
        {
          "name": "id",
          "type": "uint256"
        },
        {
          "name": "name",
          "type": "string"
        },
        {
          "name": "votes",
          "type": "uint256"
        }
      ],
      "payable": false,
      "stateMutability": "view",
      "type": "function"
    },
    {
      "constant": true,
      "inputs": [],
      "name": "cancount",
      "outputs": [
        {
          "name": "",
          "type": "uint256"
        }
      ],
      "payable": false,
      "stateMutability": "view",
      "type": "function"
    },
    {
      "constant": true,
      "inputs": [],
      "name": "test",
      "outputs": [
        {
          "name": "",
          "type": "string"
        }
      ],
      "payable": false,
      "stateMutability": "view",
      "type": "function"
    },
    {
      "inputs": [],
      "payable": false,
      "stateMutability": "nonpayable",
      "type": "constructor"
    },
    {
      "constant": false,
      "inputs": [
        {
          "name": "_id",
          "type": "uint256"
        }
      ],
      "name": "vote",
      "outputs": [],
      "payable": false,
      "stateMutability": "nonpayable",
      "type": "function"
    },
    {
      "constant": false,
      "inputs": [],
      "name": "debug",
      "outputs": [
        {
          "name": "",
          "type": "uint256"
        }
      ],
      "payable": false,
      "stateMutability": "nonpayable",
      "type": "function"
    }
  ],
  "bytecode": "0x608060405234801561001057600080fd5b506100556040518060400160405280600981526020017f53616c61642041737300000000000000000000000000000000000000000000008152506100e260201b60201c565b6100996040518060400160405280601281526020017f426c61636b20446f6e616c64205472756d7000000000000000000000000000008152506100e260201b60201c565b6100dd6040518060400160405280600c81526020017f4b65616e752052656176657300000000000000000000000000000000000000008152506100e260201b60201c565b610203565b60405180606001604052806002548152602001828152602001600081525060016000600254815260200190815260200160002060008201518160000155602082015181600101908051906020019061013b92919061015e565b506040820151816002015590505060026000815480929190600101919050555050565b828054600181600116156101000203166002900490600052602060002090601f016020900481019282601f1061019f57805160ff19168380011785556101cd565b828001600101855582156101cd579182015b828111156101cc5782518255916020019190600101906101b1565b5b5090506101da91906101de565b5090565b61020091905b808211156101fc5760008160009055506001016101e4565b5090565b90565b6103c2806102126000396000f3fe608060405234801561001057600080fd5b50600436106100575760003560e01c80630121b93f1461005c5780633477ee2e1461008a578063588ee29b1461013f578063b865d9091461015d578063f8a8fd6d1461017b575b600080fd5b6100886004803603602081101561007257600080fd5b81019080803590602001909291905050506101fe565b005b6100b6600480360360208110156100a057600080fd5b8101908080359060200190929190505050610227565b6040518084815260200180602001838152602001828103825284818151815260200191508051906020019080838360005b838110156101025780820151818401526020810190506100e7565b50505050905090810190601f16801561012f5780820380516001836020036101000a031916815260200191505b5094505050505060405180910390f35b6101476102e9565b6040518082815260200191505060405180910390f35b6101656102f2565b6040518082815260200191505060405180910390f35b6101836102f8565b6040518080602001828103825283818151815260200191508051906020019080838360005b838110156101c35780820151818401526020810190506101a8565b50505050905090810190601f1680156101f05780820380516001836020036101000a031916815260200191505b509250505060405180910390f35b600160008281526020019081526020016000206002016000815480929190600101919050555050565b6001602052806000526040600020600091509050806000015490806001018054600181600116156101000203166002900480601f0160208091040260200160405190810160405280929190818152602001828054600181600116156101000203166002900480156102d95780601f106102ae576101008083540402835291602001916102d9565b820191906000526020600020905b8154815290600101906020018083116102bc57829003601f168201915b5050505050908060020154905083565b60006045905090565b60025481565b60038054600181600116156101000203166002900480601f01602080910402602001604051908101604052809291908181526020018280546001816001161561010002031660029004801561038e5780601f106103635761010080835404028352916020019161038e565b820191906000526020600020905b81548152906001019060200180831161037157829003601f168201915b50505050508156fea165627a7a723058207fd3f3e81dc360807441a5978e83a8b402d4f99f1bb247ac993d628013c402c00029",
  "source": "pragma solidity ^0.5.0;\n\ncontract Election{\n\n  struct Candidate{\n    uint id;\n    string name;\n    uint votes;\n  }\n\n  mapping(uint => bool) private voted;\n  mapping(uint => Candidate) public candidates;\n  uint public cancount;\n  string public test;\n  \n  constructor() public{\n    newCandidate(\"Salad Ass\");\n    newCandidate(\"Black Donald Trump\");\n    newCandidate(\"Keanu Reaves\");\n  }\n\n  function newCandidate(string memory _name) private{\n    candidates[cancount] = Candidate(cancount, _name, 0);\n    cancount++;\n  }\n\n  function vote(uint _id) public{\n    candidates[_id].votes++;\n  }\n\n  function debug() public returns(uint256) {\n    return 69;\n  }\n}\n",
  "sourcePath": "/home/scar/Blockchain/Election-Dapp/contracts/Election.sol",
  "compiler": {
    "name": "solc",
    "version": "0.5.8+commit.23d335f2.Emscripten.clang"
  },
  "schemaVersion": "3.0.11",
  "updatedAt": "2019-08-14T11:56:34.251Z",
  "devdoc": {
    "methods": {}
  },
  "userdoc": {
    "methods": {}
  }
}