{
  "contractName": "Election",
  "abi": [
    {
      "constant": true,
      "inputs": [
        {
          "name": "",
          "type": "uint256"
        }
      ],
      "name": "candidates",
      "outputs": [
        {
          "name": "id",
          "type": "uint32"
        },
        {
          "name": "name",
          "type": "string"
        },
        {
          "name": "votes",
          "type": "uint256"
        }
      ],
      "payable": false,
      "stateMutability": "view",
      "type": "function",
      "signature": "0x3477ee2e"
    },
    {
      "constant": true,
      "inputs": [],
      "name": "voterRecord",
      "outputs": [
        {
          "name": "",
          "type": "string"
        }
      ],
      "payable": false,
      "stateMutability": "view",
      "type": "function",
      "signature": "0x5e4ece58"
    },
    {
      "constant": true,
      "inputs": [],
      "name": "ETHUSD",
      "outputs": [
        {
          "name": "",
          "type": "string"
        }
      ],
      "payable": false,
      "stateMutability": "view",
      "type": "function",
      "signature": "0x73db0844"
    },
    {
      "constant": true,
      "inputs": [],
      "name": "cancount",
      "outputs": [
        {
          "name": "",
          "type": "uint32"
        }
      ],
      "payable": false,
      "stateMutability": "view",
      "type": "function",
      "signature": "0xb865d909"
    },
    {
      "inputs": [],
      "payable": false,
      "stateMutability": "nonpayable",
      "type": "constructor",
      "signature": "constructor"
    },
    {
      "anonymous": false,
      "inputs": [
        {
          "indexed": false,
          "name": "nextStep",
          "type": "string"
        }
      ],
      "name": "LogConstructorInitiated",
      "type": "event",
      "signature": "0x11a3fca63f87bd67d7f9f72b744acc8be2193705e7a734ac3a773d35d259e87b"
    },
    {
      "anonymous": false,
      "inputs": [
        {
          "indexed": false,
          "name": "price",
          "type": "string"
        }
      ],
      "name": "LogPriceUpdated",
      "type": "event",
      "signature": "0x71f1a5645e51a2da828ffcf79cc17da88eb25e1bca8b9dced23210847a4769c1"
    },
    {
      "anonymous": false,
      "inputs": [
        {
          "indexed": false,
          "name": "description",
          "type": "string"
        }
      ],
      "name": "LogNewProvableQuery",
      "type": "event",
      "signature": "0xc4dc360d0a9c0677a3379ae0a3d81e887f761e65fdf3d7e00859d1bcd3c47389"
    },
    {
      "anonymous": false,
      "inputs": [
        {
          "indexed": false,
          "name": "response",
          "type": "string"
        }
      ],
      "name": "temp",
      "type": "event",
      "signature": "0x6ba31b484c93c06734efc1e44b04ef472b8515f2a8989fc062d25f40b2e14467"
    },
    {
      "constant": false,
      "inputs": [
        {
          "name": "vid",
          "type": "uint256"
        },
        {
          "name": "cid",
          "type": "uint256"
        }
      ],
      "name": "castVote",
      "outputs": [
        {
          "name": "",
          "type": "string"
        }
      ],
      "payable": false,
      "stateMutability": "nonpayable",
      "type": "function",
      "signature": "0x2c0a3f89"
    },
    {
      "constant": false,
      "inputs": [
        {
          "name": "myid",
          "type": "bytes32"
        },
        {
          "name": "result",
          "type": "string"
        }
      ],
      "name": "__callback",
      "outputs": [],
      "payable": false,
      "stateMutability": "nonpayable",
      "type": "function",
      "signature": "0x27dc297e"
    },
    {
      "constant": false,
      "inputs": [
        {
          "name": "_myid",
          "type": "bytes32"
        },
        {
          "name": "_result",
          "type": "string"
        },
        {
          "name": "_proof",
          "type": "bytes"
        }
      ],
      "name": "__callback",
      "outputs": [],
      "payable": false,
      "stateMutability": "nonpayable",
      "type": "function",
      "signature": "0x38bbfa50"
    },
    {
      "constant": false,
      "inputs": [],
      "name": "testOracle",
      "outputs": [],
      "payable": true,
      "stateMutability": "payable",
      "type": "function",
      "signature": "0xa2152e32"
    }
  ],
  "bytecode": "0x60806040526040805190810160405280600981526020017f66345132744031245e00000000000000000000000000000000000000000000008152506006908051906020019062000051929190620000fc565b503480156200005f57600080fd5b5073e273b3db6ec4ab4869c9ae92a3afd6a770ce68b5600160006101000a81548173ffffffffffffffffffffffffffffffffffffffff021916908373ffffffffffffffffffffffffffffffffffffffff16021790555033600560006101000a81548173ffffffffffffffffffffffffffffffffffffffff021916908373ffffffffffffffffffffffffffffffffffffffff160217905550620001ab565b828054600181600116156101000203166002900490600052602060002090601f016020900481019282601f106200013f57805160ff191683800117855562000170565b8280016001018555821562000170579182015b828111156200016f57825182559160200191906001019062000152565b5b5090506200017f919062000183565b5090565b620001a891905b80821115620001a45760008160009055506001016200018a565b5090565b90565b611b0380620001bb6000396000f3fe60806040526004361061008e576000357c0100000000000000000000000000000000000000000000000000000000900463ffffffff16806327dc297e146100935780632c0a3f89146101655780633477ee2e1461022357806338bbfa50146102f15780635e4ece581461045a57806373db0844146104ea578063a2152e321461057a578063b865d90914610584575b600080fd5b34801561009f57600080fd5b50610163600480360360408110156100b657600080fd5b8101908080359060200190929190803590602001906401000000008111156100dd57600080fd5b8201836020820111156100ef57600080fd5b8035906020019184600183028401116401000000008311171561011157600080fd5b91908080601f016020809104026020016040519081016040528093929190818152602001838380828437600081840152601f19601f8201169050808301925050505050505091929192905050506105bb565b005b34801561017157600080fd5b506101a86004803603604081101561018857600080fd5b8101908080359060200190929190803590602001909291905050506106b3565b6040518080602001828103825283818151815260200191508051906020019080838360005b838110156101e85780820151818401526020810190506101cd565b50505050905090810190601f1680156102155780820380516001836020036101000a031916815260200191505b509250505060405180910390f35b34801561022f57600080fd5b5061025c6004803603602081101561024657600080fd5b81019080803590602001909291905050506107d1565b604051808463ffffffff1663ffffffff16815260200180602001838152602001828103825284818151815260200191508051906020019080838360005b838110156102b4578082015181840152602081019050610299565b50505050905090810190601f1680156102e15780820380516001836020036101000a031916815260200191505b5094505050505060405180910390f35b3480156102fd57600080fd5b506104586004803603606081101561031457600080fd5b81019080803590602001909291908035906020019064010000000081111561033b57600080fd5b82018360208201111561034d57600080fd5b8035906020019184600183028401116401000000008311171561036f57600080fd5b91908080601f016020809104026020016040519081016040528093929190818152602001838380828437600081840152601f19601f820116905080830192505050505050509192919290803590602001906401000000008111156103d257600080fd5b8201836020820111156103e457600080fd5b8035906020019184600183028401116401000000008311171561040657600080fd5b91908080601f016020809104026020016040519081016040528093929190818152602001838380828437600081840152601f19601f8201169050808301925050505050505091929192905050506108a3565b005b34801561046657600080fd5b5061046f6108c7565b6040518080602001828103825283818151815260200191508051906020019080838360005b838110156104af578082015181840152602081019050610494565b50505050905090810190601f1680156104dc5780820380516001836020036101000a031916815260200191505b509250505060405180910390f35b3480156104f657600080fd5b506104ff610965565b6040518080602001828103825283818151815260200191508051906020019080838360005b8381101561053f578082015181840152602081019050610524565b50505050905090810190601f16801561056c5780820380516001836020036101000a031916815260200191505b509250505060405180910390f35b610582610a03565b005b34801561059057600080fd5b50610599610b2f565b604051808263ffffffff1663ffffffff16815260200191505060405180910390f35b6105c3610b45565b73ffffffffffffffffffffffffffffffffffffffff163373ffffffffffffffffffffffffffffffffffffffff161415156105fc57600080fd5b8060089080519060200190610612929190611a32565b507f71f1a5645e51a2da828ffcf79cc17da88eb25e1bca8b9dced23210847a4769c1816040518080602001828103825283818151815260200191508051906020019080838360005b8381101561067557808201518184015260208101905061065a565b50505050905090810190601f1680156106a25780820380516001836020036101000a031916815260200191505b509250505060405180910390a15050565b6060600015156106c284610eb8565b15151415610707576040805190810160405280601481526020017f4e6f7420612076616c696420566f74657220494400000000000000000000000081525090506107cb565b600115156009600085815260200190815260200160002060009054906101000a900460ff16151514151561076b5760016009600085815260200190815260200160002060006101000a81548160ff02191690831515021790555061076a82610ec3565b5b606060405190810160405280602881526020017f596f757220766f746520686173206265656e207265636f72646564207375636381526020017f65737366756c6c7900000000000000000000000000000000000000000000000081525090505b92915050565b600a6020528060005260406000206000915090508060000160009054906101000a900463ffffffff1690806001018054600181600116156101000203166002900480601f0160208091040260200160405190810160405280929190818152602001828054600181600116156101000203166002900480156108935780601f1061086857610100808354040283529160200191610893565b820191906000526020600020905b81548152906001019060200180831161087657829003601f168201915b5050505050908060020154905083565b60006001026003600080600102815260200190815260200160002081905550505050565b60078054600181600116156101000203166002900480601f01602080910402602001604051908101604052809291908181526020018280546001816001161561010002031660029004801561095d5780601f106109325761010080835404028352916020019161095d565b820191906000526020600020905b81548152906001019060200180831161094057829003601f168201915b505050505081565b60088054600181600116156101000203166002900480601f0160208091040260200160405190810160405280929190818152602001828054600181600116156101000203166002900480156109fb5780601f106109d0576101008083540402835291602001916109fb565b820191906000526020600020905b8154815290600101906020018083116109de57829003601f168201915b505050505081565b7fc4dc360d0a9c0677a3379ae0a3d81e887f761e65fdf3d7e00859d1bcd3c473896040518080602001828103825260358152602001807f50726f7661626c65207175657279207761732073656e742c207374616e64696e81526020017f6720627920666f722074686520616e737765722e2e000000000000000000000081525060400191505060405180910390a1610b2c6040805190810160405280600381526020017f55524c0000000000000000000000000000000000000000000000000000000000815250606060405190810160405280604081526020017f6a736f6e2868747470733a2f2f6170692e70726f2e636f696e626173652e636f81526020017f6d2f70726f64756374732f4554482d5553442f7469636b6572292e7072696365815250610eec565b50565b600b60009054906101000a900463ffffffff1681565b60008073ffffffffffffffffffffffffffffffffffffffff16600160009054906101000a900473ffffffffffffffffffffffffffffffffffffffff1673ffffffffffffffffffffffffffffffffffffffff161480610bcd57506000610bcb600160009054906101000a900473ffffffffffffffffffffffffffffffffffffffff166114a5565b145b15610bde57610bdc60006114b0565b505b600160009054906101000a900473ffffffffffffffffffffffffffffffffffffffff1673ffffffffffffffffffffffffffffffffffffffff166338cc48316040518163ffffffff167c0100000000000000000000000000000000000000000000000000000000028152600401602060405180830381600087803b158015610c6457600080fd5b505af1158015610c78573d6000803e3d6000fd5b505050506040513d6020811015610c8e57600080fd5b810190808051906020019092919050505073ffffffffffffffffffffffffffffffffffffffff166000809054906101000a900473ffffffffffffffffffffffffffffffffffffffff1673ffffffffffffffffffffffffffffffffffffffff16141515610df557600160009054906101000a900473ffffffffffffffffffffffffffffffffffffffff1673ffffffffffffffffffffffffffffffffffffffff166338cc48316040518163ffffffff167c0100000000000000000000000000000000000000000000000000000000028152600401602060405180830381600087803b158015610d7a57600080fd5b505af1158015610d8e573d6000803e3d6000fd5b505050506040513d6020811015610da457600080fd5b81019080805190602001909291905050506000806101000a81548173ffffffffffffffffffffffffffffffffffffffff021916908373ffffffffffffffffffffffffffffffffffffffff1602179055505b6000809054906101000a900473ffffffffffffffffffffffffffffffffffffffff1673ffffffffffffffffffffffffffffffffffffffff1663c281d19e6040518163ffffffff167c010000000000000000000000000000000000000000000000000000000002815260040160206040518083038186803b158015610e7857600080fd5b505afa158015610e8c573d6000803e3d6000fd5b505050506040513d6020811015610ea257600080fd5b8101908080519060200190929190505050905090565b600060019050919050565b600a60008281526020019081526020016000206002016000815480929190600101919050555050565b60008073ffffffffffffffffffffffffffffffffffffffff16600160009054906101000a900473ffffffffffffffffffffffffffffffffffffffff1673ffffffffffffffffffffffffffffffffffffffff161480610f7457506000610f72600160009054906101000a900473ffffffffffffffffffffffffffffffffffffffff166114a5565b145b15610f8557610f8360006114b0565b505b600160009054906101000a900473ffffffffffffffffffffffffffffffffffffffff1673ffffffffffffffffffffffffffffffffffffffff166338cc48316040518163ffffffff167c0100000000000000000000000000000000000000000000000000000000028152600401602060405180830381600087803b15801561100b57600080fd5b505af115801561101f573d6000803e3d6000fd5b505050506040513d602081101561103557600080fd5b810190808051906020019092919050505073ffffffffffffffffffffffffffffffffffffffff166000809054906101000a900473ffffffffffffffffffffffffffffffffffffffff1673ffffffffffffffffffffffffffffffffffffffff1614151561119c57600160009054906101000a900473ffffffffffffffffffffffffffffffffffffffff1673ffffffffffffffffffffffffffffffffffffffff166338cc48316040518163ffffffff167c0100000000000000000000000000000000000000000000000000000000028152600401602060405180830381600087803b15801561112157600080fd5b505af1158015611135573d6000803e3d6000fd5b505050506040513d602081101561114b57600080fd5b81019080805190602001909291905050506000806101000a81548173ffffffffffffffffffffffffffffffffffffffff021916908373ffffffffffffffffffffffffffffffffffffffff1602179055505b60008060009054906101000a900473ffffffffffffffffffffffffffffffffffffffff1673ffffffffffffffffffffffffffffffffffffffff1663524f3889856040518263ffffffff167c01000000000000000000000000000000000000000000000000000000000281526004018080602001828103825283818151815260200191508051906020019080838360005b8381101561124757808201518184015260208101905061122c565b50505050905090810190601f1680156112745780820380516001836020036101000a031916815260200191505b5092505050602060405180830381600087803b15801561129357600080fd5b505af11580156112a7573d6000803e3d6000fd5b505050506040513d60208110156112bd57600080fd5b8101908080519060200190929190505050905062030d403a02670de0b6b3a7640000018111156112f457600060010291505061149f565b6000809054906101000a900473ffffffffffffffffffffffffffffffffffffffff1673ffffffffffffffffffffffffffffffffffffffff1663adf59f9982600087876040518563ffffffff167c0100000000000000000000000000000000000000000000000000000000028152600401808481526020018060200180602001838103835285818151815260200191508051906020019080838360005b838110156113ab578082015181840152602081019050611390565b50505050905090810190601f1680156113d85780820380516001836020036101000a031916815260200191505b50838103825284818151815260200191508051906020019080838360005b838110156114115780820151818401526020810190506113f6565b50505050905090810190601f16801561143e5780820380516001836020036101000a031916815260200191505b50955050505050506020604051808303818588803b15801561145f57600080fd5b505af1158015611473573d6000803e3d6000fd5b50505050506040513d602081101561148a57600080fd5b81019080805190602001909291905050509150505b92915050565b6000813b9050919050565b60006114ba6114c1565b9050919050565b6000806114e1731d3b2638a7cc9f2cb3d298a3da7a90b67e5506ed6114a5565b111561158357731d3b2638a7cc9f2cb3d298a3da7a90b67e5506ed600160006101000a81548173ffffffffffffffffffffffffffffffffffffffff021916908373ffffffffffffffffffffffffffffffffffffffff16021790555061157a6040805190810160405280600b81526020017f6574685f6d61696e6e6574000000000000000000000000000000000000000000815250611a18565b60019050611a15565b60006115a273c03a2615d5efaf5f49f60b7bb6583eaec212fdf16114a5565b11156116445773c03a2615d5efaf5f49f60b7bb6583eaec212fdf1600160006101000a81548173ffffffffffffffffffffffffffffffffffffffff021916908373ffffffffffffffffffffffffffffffffffffffff16021790555061163b6040805190810160405280600c81526020017f6574685f726f707374656e330000000000000000000000000000000000000000815250611a18565b60019050611a15565b600061166373b7a07bcf2ba2f2703b24c0691b5278999c59ac7e6114a5565b11156117055773b7a07bcf2ba2f2703b24c0691b5278999c59ac7e600160006101000a81548173ffffffffffffffffffffffffffffffffffffffff021916908373ffffffffffffffffffffffffffffffffffffffff1602179055506116fc6040805190810160405280600981526020017f6574685f6b6f76616e0000000000000000000000000000000000000000000000815250611a18565b60019050611a15565b600061172473146500cfd35b22e4a392fe0adc06de1a1368ed486114a5565b11156117c65773146500cfd35b22e4a392fe0adc06de1a1368ed48600160006101000a81548173ffffffffffffffffffffffffffffffffffffffff021916908373ffffffffffffffffffffffffffffffffffffffff1602179055506117bd6040805190810160405280600b81526020017f6574685f72696e6b656279000000000000000000000000000000000000000000815250611a18565b60019050611a15565b60006117e573a2998efd205fb9d4b4963afb70778d6354ad3a416114a5565b11156118875773a2998efd205fb9d4b4963afb70778d6354ad3a41600160006101000a81548173ffffffffffffffffffffffffffffffffffffffff021916908373ffffffffffffffffffffffffffffffffffffffff16021790555061187e6040805190810160405280600a81526020017f6574685f676f65726c6900000000000000000000000000000000000000000000815250611a18565b60019050611a15565b60006118a6736f485c8bf6fc43ea212e93bbf8ce046c7f1cb4756114a5565b111561190a57736f485c8bf6fc43ea212e93bbf8ce046c7f1cb475600160006101000a81548173ffffffffffffffffffffffffffffffffffffffff021916908373ffffffffffffffffffffffffffffffffffffffff16021790555060019050611a15565b60006119297320e12a1f859b3feae5fb2a0a32c18f5a65555bbf6114a5565b111561198d577320e12a1f859b3feae5fb2a0a32c18f5a65555bbf600160006101000a81548173ffffffffffffffffffffffffffffffffffffffff021916908373ffffffffffffffffffffffffffffffffffffffff16021790555060019050611a15565b60006119ac7351efaf4c8b3c9afbd5ab9f4bbc82784ab6ef8faa6114a5565b1115611a10577351efaf4c8b3c9afbd5ab9f4bbc82784ab6ef8faa600160006101000a81548173ffffffffffffffffffffffffffffffffffffffff021916908373ffffffffffffffffffffffffffffffffffffffff16021790555060019050611a15565b600090505b90565b8060029080519060200190611a2e929190611a32565b5050565b828054600181600116156101000203166002900490600052602060002090601f016020900481019282601f10611a7357805160ff1916838001178555611aa1565b82800160010185558215611aa1579182015b82811115611aa0578251825591602001919060010190611a85565b5b509050611aae9190611ab2565b5090565b611ad491905b80821115611ad0576000816000905550600101611ab8565b5090565b9056fea165627a7a72305820a1a502ffd3c25767a2735d5c4a053212857d0cb4c1a37fc84c3d3b0f69c8312f0029",
  "source": "pragma solidity ^0.5.0;\nimport \"./provable.sol\";\n\ncontract Election is usingProvable{\n\n  address private _owner;\n  string private secert = \"f4Q2t@1$^\";\n  string public voterRecord;\n  string public ETHUSD;\n  modifier onlyOwner {\n    require(msg.sender == _owner);\n    _;\n  }\n\n  struct Candidate{\n    uint32 id;\n    string name;\n    uint votes;\n  }\n  event LogConstructorInitiated(string nextStep);\n   event LogPriceUpdated(string price);\n   event LogNewProvableQuery(string description);\n\n\n  mapping(uint => bool) private voted;\n  mapping(uint => Candidate) public candidates;\n  uint32 public cancount;\n\n  event temp(string response);\n\n  constructor() public{\n    OAR = OracleAddrResolverI(0xe273B3DB6Ec4aB4869C9aE92A3AfD6A770Ce68B5);\n    _owner = msg.sender;\n  }\n\n  function verifyVoter(uint voterid) private returns(bool){\n    return true;\n  }\n\n  function castVote(uint vid, uint cid) public returns(string memory){\n    if (verifyVoter(vid) == false){\n      return \"Not a valid Voter ID\";\n    }\n\n    else{\n      if(voted[vid] != true){\n        voted[vid] = true;\n        recordVote(cid);\n      }\n      return \"Your vote has been recorded successfully\";\n  }\n}\n\n  function newCandidate(string memory _name) private{\n    candidates[cancount] = Candidate(cancount, _name, 0);\n    cancount++;\n  }\n\n  function recordVote(uint _id) private{\n    candidates[_id].votes++;\n  }\n\n    function __callback(bytes32 myid, string memory result) public{\n        if (msg.sender != provable_cbAddress()) revert();\n        ETHUSD = result;\n        emit LogPriceUpdated(result);\n     }\n\n  function testOracle() public payable{\n    emit LogNewProvableQuery(\"Provable query was sent, standing by for the answer..\");\n    provable_query(\"URL\", \"json(https://api.pro.coinbase.com/products/ETH-USD/ticker).price\");\n  }\n}\n",
  "sourcePath": "/home/scar/Blockchain/Election-Dapp/contracts/Election.sol",
  "compiler": {
    "name": "solc",
    "version": "0.5.0+commit.1d4f565a.Emscripten.clang"
  },
  "schemaVersion": "3.0.2",
  "updatedAt": "2019-08-22T18:04:45.424Z",
  "devdoc": {
    "methods": {}
  },
  "userdoc": {
    "methods": {}
  }
}