{
  "contractName": "Election",
  "abi": [
    {
      "constant": true,
      "inputs": [
        {
          "name": "",
          "type": "uint256"
        }
      ],
      "name": "candidates",
      "outputs": [
        {
          "name": "id",
          "type": "uint32"
        },
        {
          "name": "name",
          "type": "string"
        },
        {
          "name": "votes",
          "type": "uint256"
        }
      ],
      "payable": false,
      "stateMutability": "view",
      "type": "function",
      "signature": "0x3477ee2e"
    },
    {
      "constant": true,
      "inputs": [],
      "name": "cancount",
      "outputs": [
        {
          "name": "",
          "type": "uint32"
        }
      ],
      "payable": false,
      "stateMutability": "view",
      "type": "function",
      "signature": "0xb865d909"
    },
    {
      "inputs": [],
      "payable": false,
      "stateMutability": "nonpayable",
      "type": "constructor",
      "signature": "constructor"
    },
    {
      "constant": false,
      "inputs": [
        {
          "name": "vid",
          "type": "uint256"
        },
        {
          "name": "cid",
          "type": "uint256"
        }
      ],
      "name": "castVote",
      "outputs": [
        {
          "name": "",
          "type": "string"
        }
      ],
      "payable": false,
      "stateMutability": "nonpayable",
      "type": "function",
      "signature": "0x2c0a3f89"
    }
  ],
  "bytecode": "0x608060405234801561001057600080fd5b5033600260046101000a81548173ffffffffffffffffffffffffffffffffffffffff021916908373ffffffffffffffffffffffffffffffffffffffff16021790555061009f6040805190810160405280600d81526020017f42616a656e647261204d6f64690000000000000000000000000000000000000081525061013e640100000000026401000000009004565b6100ec6040805190810160405280600581526020017f506170707500000000000000000000000000000000000000000000000000000081525061013e640100000000026401000000009004565b6101396040805190810160405280600881526020017f4a656a726977616c00000000000000000000000000000000000000000000000081525061013e640100000000026401000000009004565b6102d2565b606060405190810160405280600260009054906101000a900463ffffffff1663ffffffff168152602001828152602001600081525060016000600260009054906101000a900463ffffffff1663ffffffff16815260200190815260200160002060008201518160000160006101000a81548163ffffffff021916908363ffffffff16021790555060208201518160010190805190602001906101e192919061022d565b50604082015181600201559050506002600081819054906101000a900463ffffffff168092919060010191906101000a81548163ffffffff021916908363ffffffff1602179055505050565b828054600181600116156101000203166002900490600052602060002090601f016020900481019282601f1061026e57805160ff191683800117855561029c565b8280016001018555821561029c579182015b8281111561029b578251825591602001919060010190610280565b5b5090506102a991906102ad565b5090565b6102cf91905b808211156102cb5760008160009055506001016102b3565b5090565b90565b610481806102e16000396000f3fe608060405260043610610057576000357c0100000000000000000000000000000000000000000000000000000000900463ffffffff1680632c0a3f891461005c5780633477ee2e1461011a578063b865d909146101e8575b600080fd5b34801561006857600080fd5b5061009f6004803603604081101561007f57600080fd5b81019080803590602001909291908035906020019092919050505061021f565b6040518080602001828103825283818151815260200191508051906020019080838360005b838110156100df5780820151818401526020810190506100c4565b50505050905090810190601f16801561010c5780820380516001836020036101000a031916815260200191505b509250505060405180910390f35b34801561012657600080fd5b506101536004803603602081101561013d57600080fd5b8101908080359060200190929190505050610344565b604051808463ffffffff1663ffffffff16815260200180602001838152602001828103825284818151815260200191508051906020019080838360005b838110156101ab578082015181840152602081019050610190565b50505050905090810190601f1680156101d85780820380516001836020036101000a031916815260200191505b5094505050505060405180910390f35b3480156101f457600080fd5b506101fd610416565b604051808263ffffffff1663ffffffff16815260200191505060405180910390f35b6060600260049054906101000a900473ffffffffffffffffffffffffffffffffffffffff1673ffffffffffffffffffffffffffffffffffffffff163373ffffffffffffffffffffffffffffffffffffffff1614151561027d57600080fd5b6001151560008085815260200190815260200160002060009054906101000a900460ff1615151415156102df57600160008085815260200190815260200160002060006101000a81548160ff0219169083151502179055506102de8261042c565b5b606060405190810160405280602881526020017f596f757220766f746520686173206265656e207265636f72646564207375636381526020017f65737366756c6c79000000000000000000000000000000000000000000000000815250905092915050565b60016020528060005260406000206000915090508060000160009054906101000a900463ffffffff1690806001018054600181600116156101000203166002900480601f0160208091040260200160405190810160405280929190818152602001828054600181600116156101000203166002900480156104065780601f106103db57610100808354040283529160200191610406565b820191906000526020600020905b8154815290600101906020018083116103e957829003601f168201915b5050505050908060020154905083565b600260009054906101000a900463ffffffff1681565b60016000828152602001908152602001600020600201600081548092919060010191905055505056fea165627a7a72305820a04211b33b5d42e1c919e1d261781e84d21338d016dfda006cedcf38eb9dc8190029",
  "source": "pragma solidity ^0.5.0;\n\ncontract Election{\n\n  struct Candidate{\n    uint32 id;\n    string name;\n    uint votes;\n  }\n  mapping(uint => bool) private voted;\n  mapping(uint => Candidate) public candidates;\n  uint32 public cancount;\n  address private _owner;\n\n  modifier onlyOwner {\n    require(msg.sender == _owner);\n    _;\n  }\n\n  constructor() public{\n    _owner = msg.sender;\n  \tnewCandidate('Bajendra Modi');\n  \tnewCandidate('Pappu');\n  \tnewCandidate('Jejriwal');\n  }\n\n  function castVote(uint vid, uint cid) public onlyOwner returns(string memory){\n\n      if(voted[vid] != true){\n        voted[vid] = true;\n        recordVote(cid);\n      }\n      return \"Your vote has been recorded successfully\";\n}\n\n  function newCandidate(string memory _name) private{\n    candidates[cancount] = Candidate(cancount, _name, 0);\n    cancount++;\n  }\n\n  function recordVote(uint _id) private{\n    candidates[_id].votes++;\n  }\n\n  function concludeElection() onlyOwner private returns(bool success) {\n  _owner = address(0);\n  return true;\n}\n}\n",
  "sourcePath": "/home/scar/Blockchain/Election-Dapp/contracts/Election.sol",
  "compiler": {
    "name": "solc",
    "version": "0.5.0+commit.1d4f565a.Emscripten.clang"
  },
  "schemaVersion": "3.0.2",
  "updatedAt": "2019-08-27T17:13:01.979Z",
  "devdoc": {
    "methods": {}
  },
  "userdoc": {
    "methods": {}
  }
}