{
  "contractName": "Election",
  "abi": [
    {
      "constant": true,
      "inputs": [
        {
          "name": "",
          "type": "uint256"
        }
      ],
      "name": "candidates",
      "outputs": [
        {
          "name": "id",
          "type": "uint256"
        },
        {
          "name": "name",
          "type": "string"
        },
        {
          "name": "votes",
          "type": "uint256"
        }
      ],
      "payable": false,
      "stateMutability": "view",
      "type": "function"
    },
    {
      "constant": true,
      "inputs": [],
      "name": "cancount",
      "outputs": [
        {
          "name": "",
          "type": "uint256"
        }
      ],
      "payable": false,
      "stateMutability": "view",
      "type": "function"
    },
    {
      "inputs": [],
      "payable": false,
      "stateMutability": "nonpayable",
      "type": "constructor"
    }
  ],
  "bytecode": "0x608060405234801561001057600080fd5b50600060018190555061005d6040518060400160405280601281526020017f426c61636b20446f6e616c64205472756d7000000000000000000000000000008152506100a660201b60201c565b6100a16040518060400160405280600c81526020017f4b65616e752052656176657300000000000000000000000000000000000000008152506100a660201b60201c565b6101c6565b6001600081548092919060010191905055506040518060600160405280600154815260200182815260200160008152506000806001548152602001908152602001600020600082015181600001556020820151816001019080519060200190610110929190610121565b506040820151816002015590505050565b828054600181600116156101000203166002900490600052602060002090601f016020900481019282601f1061016257805160ff1916838001178555610190565b82800160010185558215610190579182015b8281111561018f578251825591602001919060010190610174565b5b50905061019d91906101a1565b5090565b6101c391905b808211156101bf5760008160009055506001016101a7565b5090565b90565b610202806101d56000396000f3fe608060405234801561001057600080fd5b50600436106100365760003560e01c80633477ee2e1461003b578063b865d909146100f0575b600080fd5b6100676004803603602081101561005157600080fd5b810190808035906020019092919050505061010e565b6040518084815260200180602001838152602001828103825284818151815260200191508051906020019080838360005b838110156100b3578082015181840152602081019050610098565b50505050905090810190601f1680156100e05780820380516001836020036101000a031916815260200191505b5094505050505060405180910390f35b6100f86101d0565b6040518082815260200191505060405180910390f35b6000602052806000526040600020600091509050806000015490806001018054600181600116156101000203166002900480601f0160208091040260200160405190810160405280929190818152602001828054600181600116156101000203166002900480156101c05780601f10610195576101008083540402835291602001916101c0565b820191906000526020600020905b8154815290600101906020018083116101a357829003601f168201915b5050505050908060020154905083565b6001548156fea165627a7a723058204b7a51fd86a2e8b96b7d9170a715a23918ed999da44f531d9bc08c319c0bd9a90029",
  "source": "pragma solidity ^0.5.0;\n\ncontract Election{\n\n  struct Candidate{\n    uint id;\n    string name;\n    uint votes;\n  }\n\n  mapping(uint => Candidate) public candidates;\n  uint public cancount;\n\n  constructor() public{\n    cancount = 0;\n    newCandidate(\"Black Donald Trump\");\n    newCandidate(\"Keanu Reaves\");\n  }\n\n  function newCandidate(string memory _name) private{\n    cancount ++;\n    candidates[cancount] = Candidate(cancount, _name, 0);\n  }\n}\n",
  "sourcePath": "/home/scar/Blockchain/Election-Dapp/contracts/Election.sol",
  "compiler": {
    "name": "solc",
    "version": "0.5.8+commit.23d335f2.Emscripten.clang"
  },
  "schemaVersion": "3.0.11",
  "updatedAt": "2019-07-20T18:34:15.761Z",
  "devdoc": {
    "methods": {}
  },
  "userdoc": {
    "methods": {}
  }
}